{
  "_format": "hh-sol-artifact-1",
  "contractName": "Voting",
  "sourceName": "contracts/Voting.sol",
  "abi": [
    {
      "inputs": [
        {
          "internalType": "address",
          "name": "_verifier",
          "type": "address"
        },
        {
          "internalType": "address",
          "name": "_whitelist",
          "type": "address"
        }
      ],
      "stateMutability": "nonpayable",
      "type": "constructor"
    },
    {
      "anonymous": false,
      "inputs": [
        {
          "indexed": true,
          "internalType": "address",
          "name": "previousOwner",
          "type": "address"
        },
        {
          "indexed": true,
          "internalType": "address",
          "name": "newOwner",
          "type": "address"
        }
      ],
      "name": "OwnershipTransferred",
      "type": "event"
    },
    {
      "anonymous": false,
      "inputs": [
        {
          "indexed": false,
          "internalType": "string",
          "name": "name",
          "type": "string"
        },
        {
          "indexed": false,
          "internalType": "string",
          "name": "description",
          "type": "string"
        }
      ],
      "name": "createProposal",
      "type": "event"
    },
    {
      "anonymous": false,
      "inputs": [
        {
          "indexed": false,
          "internalType": "uint256",
          "name": "proposalId",
          "type": "uint256"
        },
        {
          "indexed": false,
          "internalType": "uint256[]",
          "name": "votes",
          "type": "uint256[]"
        }
      ],
      "name": "resultProposal",
      "type": "event"
    },
    {
      "inputs": [
        {
          "internalType": "uint256",
          "name": "_IDProposal",
          "type": "uint256"
        }
      ],
      "name": "closeProposal",
      "outputs": [],
      "stateMutability": "nonpayable",
      "type": "function"
    },
    {
      "inputs": [],
      "name": "creator",
      "outputs": [
        {
          "internalType": "address",
          "name": "",
          "type": "address"
        }
      ],
      "stateMutability": "view",
      "type": "function"
    },
    {
      "inputs": [
        {
          "internalType": "string",
          "name": "_name",
          "type": "string"
        },
        {
          "internalType": "string",
          "name": "_description",
          "type": "string"
        },
        {
          "internalType": "uint256",
          "name": "_delay",
          "type": "uint256"
        },
        {
          "internalType": "uint256",
          "name": "_duree",
          "type": "uint256"
        },
        {
          "internalType": "string[]",
          "name": "_choices",
          "type": "string[]"
        }
      ],
      "name": "newProposal",
      "outputs": [],
      "stateMutability": "nonpayable",
      "type": "function"
    },
    {
      "inputs": [],
      "name": "owner",
      "outputs": [
        {
          "internalType": "address",
          "name": "",
          "type": "address"
        }
      ],
      "stateMutability": "view",
      "type": "function"
    },
    {
      "inputs": [],
      "name": "proposalId",
      "outputs": [
        {
          "internalType": "uint256",
          "name": "",
          "type": "uint256"
        }
      ],
      "stateMutability": "view",
      "type": "function"
    },
    {
      "inputs": [
        {
          "internalType": "uint256",
          "name": "",
          "type": "uint256"
        }
      ],
      "name": "proposals",
      "outputs": [
        {
          "internalType": "uint256",
          "name": "id",
          "type": "uint256"
        },
        {
          "internalType": "string",
          "name": "name",
          "type": "string"
        },
        {
          "internalType": "string",
          "name": "description",
          "type": "string"
        },
        {
          "internalType": "uint256",
          "name": "begin",
          "type": "uint256"
        },
        {
          "internalType": "uint256",
          "name": "end",
          "type": "uint256"
        },
        {
          "internalType": "enum Voting.ProposalState",
          "name": "state",
          "type": "uint8"
        }
      ],
      "stateMutability": "view",
      "type": "function"
    },
    {
      "inputs": [],
      "name": "renounceOwnership",
      "outputs": [],
      "stateMutability": "nonpayable",
      "type": "function"
    },
    {
      "inputs": [
        {
          "internalType": "address",
          "name": "newOwner",
          "type": "address"
        }
      ],
      "name": "transferOwnership",
      "outputs": [],
      "stateMutability": "nonpayable",
      "type": "function"
    },
    {
      "inputs": [],
      "name": "verifier",
      "outputs": [
        {
          "internalType": "address",
          "name": "",
          "type": "address"
        }
      ],
      "stateMutability": "view",
      "type": "function"
    },
    {
      "inputs": [
        {
          "internalType": "uint256",
          "name": "_IDProposal",
          "type": "uint256"
        },
        {
          "internalType": "string",
          "name": "choices",
          "type": "string"
        }
      ],
      "name": "vote",
      "outputs": [],
      "stateMutability": "nonpayable",
      "type": "function"
    },
    {
      "inputs": [],
      "name": "votingEndtime",
      "outputs": [
        {
          "internalType": "uint256",
          "name": "",
          "type": "uint256"
        }
      ],
      "stateMutability": "view",
      "type": "function"
    },
    {
      "inputs": [],
      "name": "votingStartime",
      "outputs": [
        {
          "internalType": "uint256",
          "name": "",
          "type": "uint256"
        }
      ],
      "stateMutability": "view",
      "type": "function"
    },
    {
      "inputs": [],
      "name": "whitelist",
      "outputs": [
        {
          "internalType": "address",
          "name": "",
          "type": "address"
        }
      ],
      "stateMutability": "view",
      "type": "function"
    }
  ],
  "bytecode": "0x60806040523480156200001157600080fd5b50604051620020d5380380620020d5833981810160405281019062000037919062000258565b620000576200004b6200012260201b60201c565b6200012a60201b60201c565b33600160006101000a81548173ffffffffffffffffffffffffffffffffffffffff021916908373ffffffffffffffffffffffffffffffffffffffff16021790555081600260006101000a81548173ffffffffffffffffffffffffffffffffffffffff021916908373ffffffffffffffffffffffffffffffffffffffff16021790555080600360006101000a81548173ffffffffffffffffffffffffffffffffffffffff021916908373ffffffffffffffffffffffffffffffffffffffff16021790555050506200029f565b600033905090565b60008060009054906101000a900473ffffffffffffffffffffffffffffffffffffffff169050816000806101000a81548173ffffffffffffffffffffffffffffffffffffffff021916908373ffffffffffffffffffffffffffffffffffffffff1602179055508173ffffffffffffffffffffffffffffffffffffffff168173ffffffffffffffffffffffffffffffffffffffff167f8be0079c531659141344cd1fd0a4f28419497f9722a3daafe3b4186f6b6457e060405160405180910390a35050565b600080fd5b600073ffffffffffffffffffffffffffffffffffffffff82169050919050565b60006200022082620001f3565b9050919050565b620002328162000213565b81146200023e57600080fd5b50565b600081519050620002528162000227565b92915050565b60008060408385031215620002725762000271620001ee565b5b6000620002828582860162000241565b9250506020620002958582860162000241565b9150509250929050565b611e2680620002af6000396000f3fe608060405234801561001057600080fd5b50600436106100cf5760003560e01c80634f0b3ddf1161008c5780638c455e87116100665780638c455e87146101df5780638da5cb5b146101fd57806393e59dc11461021b578063f2fde38b14610239576100cf565b80634f0b3ddf1461019b578063715018a6146101b75780638427c71e146101c1576100cf565b8063013cf08b146100d457806302d05d3f146101095780630386a0161461012757806324108475146101435780632b7ac3f31461015f5780632dfca4451461017d575b600080fd5b6100ee60048036038101906100e99190610e03565b610255565b60405161010096959493929190610f46565b60405180910390f35b6101116103ae565b60405161011e9190610ff6565b60405180910390f35b610141600480360381019061013c9190610e03565b6103d4565b005b61015d60048036038101906101589190611146565b61053a565b005b610167610836565b6040516101749190610ff6565b60405180910390f35b61018561085c565b60405161019291906111a2565b60405180910390f35b6101b560048036038101906101b091906112a3565b610862565b005b6101bf610a56565b005b6101c9610a6a565b6040516101d691906111a2565b60405180910390f35b6101e7610a70565b6040516101f491906111a2565b60405180910390f35b610205610a76565b6040516102129190610ff6565b60405180910390f35b610223610a9f565b6040516102309190610ff6565b60405180910390f35b610253600480360381019061024e919061139e565b610ac5565b005b600960205280600052604060002060009150905080600001549080600101805461027e906113fa565b80601f01602080910402602001604051908101604052809291908181526020018280546102aa906113fa565b80156102f75780601f106102cc576101008083540402835291602001916102f7565b820191906000526020600020905b8154815290600101906020018083116102da57829003601f168201915b50505050509080600201805461030c906113fa565b80601f0160208091040260200160405190810160405280929190818152602001828054610338906113fa565b80156103855780601f1061035a57610100808354040283529160200191610385565b820191906000526020600020905b81548152906001019060200180831161036857829003601f168201915b5050505050908060050154908060060154908060070160009054906101000a900460ff16905086565b600160009054906101000a900473ffffffffffffffffffffffffffffffffffffffff1681565b6103dc610b48565b6004548110610420576040517f08c379a00000000000000000000000000000000000000000000000000000000081526004016104179061149d565b60405180910390fd5b6001600281111561043457610433610ecf565b5b6009600083815260200190815260200160002060070160009054906101000a900460ff16600281111561046a57610469610ecf565b5b146104aa576040517f08c379a00000000000000000000000000000000000000000000000000000000081526004016104a190611509565b60405180910390fd5b60026009600083815260200190815260200160002060070160006101000a81548160ff021916908360028111156104e4576104e3610ecf565b5b02179055507fe66c40e769a9c3097fcc614c2b8ba6bc11b7837edfdbad7d17599f3bd93d6ba6816009600084815260200190815260200160002060040160405161052f929190611637565b60405180910390a150565b600260009054906101000a900473ffffffffffffffffffffffffffffffffffffffff1673ffffffffffffffffffffffffffffffffffffffff163373ffffffffffffffffffffffffffffffffffffffff16146105ca576040517f08c379a00000000000000000000000000000000000000000000000000000000081526004016105c1906116d9565b60405180910390fd5b6009600083815260200190815260200160002060050154421015610623576040517f08c379a000000000000000000000000000000000000000000000000000000000815260040161061a90611745565b60405180910390fd5b6009600083815260200190815260200160002060060154421061067b576040517f08c379a0000000000000000000000000000000000000000000000000000000008152600401610672906117b1565b60405180910390fd5b6001600281111561068f5761068e610ecf565b5b6009600084815260200190815260200160002060070160009054906101000a900460ff1660028111156106c5576106c4610ecf565b5b14610705576040517f08c379a00000000000000000000000000000000000000000000000000000000081526004016106fc9061181d565b60405180910390fd5b60008060008380519060200120905060005b60096000878152602001908152602001600020600301805490508110156107a457816009600088815260200190815260200160002060030182815481106107615761076061183d565b5b90600052602060002001604051610778919061190f565b60405180910390200361079157600193508092506107a4565b808061079c90611955565b915050610717565b50826107e5576040517f08c379a00000000000000000000000000000000000000000000000000000000081526004016107dc906119e9565b60405180910390fd5b600160096000878152602001908152602001600020600401838154811061080f5761080e61183d565b5b9060005260206000200160008282546108289190611a09565b925050819055505050505050565b600260009054906101000a900473ffffffffffffffffffffffffffffffffffffffff1681565b60045481565b61086a610b48565b82426108769190611a09565b6005819055508160055461088a9190611a09565b60068190555060006040518061010001604052806004548152602001878152602001868152602001838152602001835167ffffffffffffffff8111156108d3576108d261101b565b5b6040519080825280602002602001820160405280156109015781602001602082028036833780820191505090505b508152602001600554815260200160065481526020016001600281111561092b5761092a610ecf565b5b8152509050806009600060045481526020019081526020016000206000820151816000015560208201518160010190816109659190611be9565b50604082015181600201908161097b9190611be9565b506060820151816003019080519060200190610998929190610c92565b5060808201518160040190805190602001906109b5929190610ceb565b5060a0820151816005015560c0820151816006015560e08201518160070160006101000a81548160ff021916908360028111156109f5576109f4610ecf565b5b021790555090505060046000815480929190610a1090611955565b91905055507f65e481e2f6ecd1fb5ea0d23b03e77192a2ab11bb5c885af1a3934770042f60ef8686604051610a46929190611cbb565b60405180910390a1505050505050565b610a5e610b48565b610a686000610bc6565b565b60055481565b60065481565b60008060009054906101000a900473ffffffffffffffffffffffffffffffffffffffff16905090565b600360009054906101000a900473ffffffffffffffffffffffffffffffffffffffff1681565b610acd610b48565b600073ffffffffffffffffffffffffffffffffffffffff168173ffffffffffffffffffffffffffffffffffffffff1603610b3c576040517f08c379a0000000000000000000000000000000000000000000000000000000008152600401610b3390611d64565b60405180910390fd5b610b4581610bc6565b50565b610b50610c8a565b73ffffffffffffffffffffffffffffffffffffffff16610b6e610a76565b73ffffffffffffffffffffffffffffffffffffffff1614610bc4576040517f08c379a0000000000000000000000000000000000000000000000000000000008152600401610bbb90611dd0565b60405180910390fd5b565b60008060009054906101000a900473ffffffffffffffffffffffffffffffffffffffff169050816000806101000a81548173ffffffffffffffffffffffffffffffffffffffff021916908373ffffffffffffffffffffffffffffffffffffffff1602179055508173ffffffffffffffffffffffffffffffffffffffff168173ffffffffffffffffffffffffffffffffffffffff167f8be0079c531659141344cd1fd0a4f28419497f9722a3daafe3b4186f6b6457e060405160405180910390a35050565b600033905090565b828054828255906000526020600020908101928215610cda579160200282015b82811115610cd9578251829081610cc99190611be9565b5091602001919060010190610cb2565b5b509050610ce79190610d38565b5090565b828054828255906000526020600020908101928215610d27579160200282015b82811115610d26578251825591602001919060010190610d0b565b5b509050610d349190610d5c565b5090565b5b80821115610d585760008181610d4f9190610d79565b50600101610d39565b5090565b5b80821115610d75576000816000905550600101610d5d565b5090565b508054610d85906113fa565b6000825580601f10610d975750610db6565b601f016020900490600052602060002090810190610db59190610d5c565b5b50565b6000604051905090565b600080fd5b600080fd5b6000819050919050565b610de081610dcd565b8114610deb57600080fd5b50565b600081359050610dfd81610dd7565b92915050565b600060208284031215610e1957610e18610dc3565b5b6000610e2784828501610dee565b91505092915050565b610e3981610dcd565b82525050565b600081519050919050565b600082825260208201905092915050565b60005b83811015610e79578082015181840152602081019050610e5e565b60008484015250505050565b6000601f19601f8301169050919050565b6000610ea182610e3f565b610eab8185610e4a565b9350610ebb818560208601610e5b565b610ec481610e85565b840191505092915050565b7f4e487b7100000000000000000000000000000000000000000000000000000000600052602160045260246000fd5b60038110610f0f57610f0e610ecf565b5b50565b6000819050610f2082610efe565b919050565b6000610f3082610f12565b9050919050565b610f4081610f25565b82525050565b600060c082019050610f5b6000830189610e30565b8181036020830152610f6d8188610e96565b90508181036040830152610f818187610e96565b9050610f906060830186610e30565b610f9d6080830185610e30565b610faa60a0830184610f37565b979650505050505050565b600073ffffffffffffffffffffffffffffffffffffffff82169050919050565b6000610fe082610fb5565b9050919050565b610ff081610fd5565b82525050565b600060208201905061100b6000830184610fe7565b92915050565b600080fd5b600080fd5b7f4e487b7100000000000000000000000000000000000000000000000000000000600052604160045260246000fd5b61105382610e85565b810181811067ffffffffffffffff821117156110725761107161101b565b5b80604052505050565b6000611085610db9565b9050611091828261104a565b919050565b600067ffffffffffffffff8211156110b1576110b061101b565b5b6110ba82610e85565b9050602081019050919050565b82818337600083830152505050565b60006110e96110e484611096565b61107b565b90508281526020810184848401111561110557611104611016565b5b6111108482856110c7565b509392505050565b600082601f83011261112d5761112c611011565b5b813561113d8482602086016110d6565b91505092915050565b6000806040838503121561115d5761115c610dc3565b5b600061116b85828601610dee565b925050602083013567ffffffffffffffff81111561118c5761118b610dc8565b5b61119885828601611118565b9150509250929050565b60006020820190506111b76000830184610e30565b92915050565b600067ffffffffffffffff8211156111d8576111d761101b565b5b602082029050602081019050919050565b600080fd5b60006112016111fc846111bd565b61107b565b90508083825260208201905060208402830185811115611224576112236111e9565b5b835b8181101561126b57803567ffffffffffffffff81111561124957611248611011565b5b8086016112568982611118565b85526020850194505050602081019050611226565b5050509392505050565b600082601f83011261128a57611289611011565b5b813561129a8482602086016111ee565b91505092915050565b600080600080600060a086880312156112bf576112be610dc3565b5b600086013567ffffffffffffffff8111156112dd576112dc610dc8565b5b6112e988828901611118565b955050602086013567ffffffffffffffff81111561130a57611309610dc8565b5b61131688828901611118565b945050604061132788828901610dee565b935050606061133888828901610dee565b925050608086013567ffffffffffffffff81111561135957611358610dc8565b5b61136588828901611275565b9150509295509295909350565b61137b81610fd5565b811461138657600080fd5b50565b60008135905061139881611372565b92915050565b6000602082840312156113b4576113b3610dc3565b5b60006113c284828501611389565b91505092915050565b7f4e487b7100000000000000000000000000000000000000000000000000000000600052602260045260246000fd5b6000600282049050600182168061141257607f821691505b602082108103611425576114246113cb565b5b50919050565b7f5468697320494420646f6573206e6f7420636f72726573706f6e6420746f206160008201527f2050726f706f73616c2e00000000000000000000000000000000000000000000602082015250565b6000611487602a83610e4a565b91506114928261142b565b604082019050919050565b600060208201905081810360008301526114b68161147a565b9050919050565b7f50726f706f73616c206973206e6f74206163746976652e000000000000000000600082015250565b60006114f3601783610e4a565b91506114fe826114bd565b602082019050919050565b60006020820190508181036000830152611522816114e6565b9050919050565b600081549050919050565b600082825260208201905092915050565b60008190508160005260206000209050919050565b61156381610dcd565b82525050565b6000611575838361155a565b60208301905092915050565b60008160001c9050919050565b6000819050919050565b60006115ab6115a683611581565b61158e565b9050919050565b60006115be8254611598565b9050919050565b6000600182019050919050565b60006115dd82611529565b6115e78185611534565b93506115f283611545565b8060005b8381101561162a57611607826115b2565b6116118882611569565b975061161c836115c5565b9250506001810190506115f6565b5085935050505092915050565b600060408201905061164c6000830185610e30565b818103602083015261165e81846115d2565b90509392505050565b7f4f6e6c79207363566f74652063616e2063616c6c20746869732066756e63746960008201527f6f6e2e0000000000000000000000000000000000000000000000000000000000602082015250565b60006116c3602383610e4a565b91506116ce82611667565b604082019050919050565b600060208201905081810360008301526116f2816116b6565b9050919050565b7f566f74696e6720686173206e6f742073746172746564207965742e0000000000600082015250565b600061172f601b83610e4a565b915061173a826116f9565b602082019050919050565b6000602082019050818103600083015261175e81611722565b9050919050565b7f566f74696e672068617320656e6465642e000000000000000000000000000000600082015250565b600061179b601183610e4a565b91506117a682611765565b602082019050919050565b600060208201905081810360008301526117ca8161178e565b9050919050565b7f50726f706f73616c206973206e6f7420696e2073746174757320416374697665600082015250565b6000611807602083610e4a565b9150611812826117d1565b602082019050919050565b60006020820190508181036000830152611836816117fa565b9050919050565b7f4e487b7100000000000000000000000000000000000000000000000000000000600052603260045260246000fd5b600081905092915050565b60008190508160005260206000209050919050565b60008154611899816113fa565b6118a3818661186c565b945060018216600081146118be57600181146118d357611906565b60ff1983168652811515820286019350611906565b6118dc85611877565b60005b838110156118fe578154818901526001820191506020810190506118df565b838801955050505b50505092915050565b600061191b828461188c565b915081905092915050565b7f4e487b7100000000000000000000000000000000000000000000000000000000600052601160045260246000fd5b600061196082610dcd565b91507fffffffffffffffffffffffffffffffffffffffffffffffffffffffffffffffff820361199257611991611926565b5b600182019050919050565b7f546869732063686f69636520646f6573206e6f742065786973742e0000000000600082015250565b60006119d3601b83610e4a565b91506119de8261199d565b602082019050919050565b60006020820190508181036000830152611a02816119c6565b9050919050565b6000611a1482610dcd565b9150611a1f83610dcd565b9250828201905080821115611a3757611a36611926565b5b92915050565b60008190508160005260206000209050919050565b60006020601f8301049050919050565b600082821b905092915050565b600060088302611a9f7fffffffffffffffffffffffffffffffffffffffffffffffffffffffffffffffff82611a62565b611aa98683611a62565b95508019841693508086168417925050509392505050565b6000819050919050565b6000611ae6611ae1611adc84610dcd565b611ac1565b610dcd565b9050919050565b6000819050919050565b611b0083611acb565b611b14611b0c82611aed565b848454611a6f565b825550505050565b600090565b611b29611b1c565b611b34818484611af7565b505050565b5b81811015611b5857611b4d600082611b21565b600181019050611b3a565b5050565b601f821115611b9d57611b6e81611a3d565b611b7784611a52565b81016020851015611b86578190505b611b9a611b9285611a52565b830182611b39565b50505b505050565b600082821c905092915050565b6000611bc060001984600802611ba2565b1980831691505092915050565b6000611bd98383611baf565b9150826002028217905092915050565b611bf282610e3f565b67ffffffffffffffff811115611c0b57611c0a61101b565b5b611c1582546113fa565b611c20828285611b5c565b600060209050601f831160018114611c535760008415611c41578287015190505b611c4b8582611bcd565b865550611cb3565b601f198416611c6186611a3d565b60005b82811015611c8957848901518255600182019150602085019450602081019050611c64565b86831015611ca65784890151611ca2601f891682611baf565b8355505b6001600288020188555050505b505050505050565b60006040820190508181036000830152611cd58185610e96565b90508181036020830152611ce98184610e96565b90509392505050565b7f4f776e61626c653a206e6577206f776e657220697320746865207a65726f206160008201527f6464726573730000000000000000000000000000000000000000000000000000602082015250565b6000611d4e602683610e4a565b9150611d5982611cf2565b604082019050919050565b60006020820190508181036000830152611d7d81611d41565b9050919050565b7f4f776e61626c653a2063616c6c6572206973206e6f7420746865206f776e6572600082015250565b6000611dba602083610e4a565b9150611dc582611d84565b602082019050919050565b60006020820190508181036000830152611de981611dad565b905091905056fea26469706673582212203265fc3fe1684674e47513528ffc87529c8cf73568a5d0f135f8b8f964a27dfd64736f6c63430008130033",
  "linkReferences": {},
  "deployedLinkReferences": {}
}