{
  "_format": "hh-sol-artifact-1",
  "contractName": "Verifier",
  "sourceName": "contracts/Verifier.sol",
  "abi": [
    {
      "inputs": [],
      "stateMutability": "nonpayable",
      "type": "constructor"
    },
    {
      "anonymous": false,
      "inputs": [
        {
          "components": [
            {
              "internalType": "bytes16",
              "name": "appId",
              "type": "bytes16"
            },
            {
              "internalType": "bytes16",
              "name": "namespace",
              "type": "bytes16"
            },
            {
              "internalType": "bytes32",
              "name": "version",
              "type": "bytes32"
            },
            {
              "components": [
                {
                  "internalType": "enum AuthType",
                  "name": "authType",
                  "type": "uint8"
                },
                {
                  "internalType": "bool",
                  "name": "isAnon",
                  "type": "bool"
                },
                {
                  "internalType": "uint256",
                  "name": "userId",
                  "type": "uint256"
                },
                {
                  "internalType": "bytes",
                  "name": "extraData",
                  "type": "bytes"
                },
                {
                  "internalType": "bytes",
                  "name": "proofData",
                  "type": "bytes"
                }
              ],
              "internalType": "struct VerifiedAuth[]",
              "name": "auths",
              "type": "tuple[]"
            },
            {
              "components": [
                {
                  "internalType": "enum ClaimType",
                  "name": "claimType",
                  "type": "uint8"
                },
                {
                  "internalType": "bytes16",
                  "name": "groupId",
                  "type": "bytes16"
                },
                {
                  "internalType": "bytes16",
                  "name": "groupTimestamp",
                  "type": "bytes16"
                },
                {
                  "internalType": "uint256",
                  "name": "value",
                  "type": "uint256"
                },
                {
                  "internalType": "bytes",
                  "name": "extraData",
                  "type": "bytes"
                },
                {
                  "internalType": "uint256",
                  "name": "proofId",
                  "type": "uint256"
                },
                {
                  "internalType": "bytes",
                  "name": "proofData",
                  "type": "bytes"
                }
              ],
              "internalType": "struct VerifiedClaim[]",
              "name": "claims",
              "type": "tuple[]"
            },
            {
              "internalType": "bytes",
              "name": "signedMessage",
              "type": "bytes"
            }
          ],
          "indexed": false,
          "internalType": "struct SismoConnectVerifiedResult",
          "name": "result",
          "type": "tuple"
        }
      ],
      "name": "ResponseVerified",
      "type": "event"
    },
    {
      "inputs": [],
      "name": "ADDRESSES_PROVIDER_V2",
      "outputs": [
        {
          "internalType": "contract IAddressesProvider",
          "name": "",
          "type": "address"
        }
      ],
      "stateMutability": "view",
      "type": "function"
    },
    {
      "inputs": [],
      "name": "APP_ID",
      "outputs": [
        {
          "internalType": "bytes16",
          "name": "",
          "type": "bytes16"
        }
      ],
      "stateMutability": "view",
      "type": "function"
    },
    {
      "inputs": [],
      "name": "IS_IMPERSONATION_MODE",
      "outputs": [
        {
          "internalType": "bool",
          "name": "",
          "type": "bool"
        }
      ],
      "stateMutability": "view",
      "type": "function"
    },
    {
      "inputs": [],
      "name": "SISMO_CONNECT_LIB_VERSION",
      "outputs": [
        {
          "internalType": "uint256",
          "name": "",
          "type": "uint256"
        }
      ],
      "stateMutability": "view",
      "type": "function"
    },
    {
      "inputs": [],
      "name": "config",
      "outputs": [
        {
          "components": [
            {
              "internalType": "bytes16",
              "name": "appId",
              "type": "bytes16"
            },
            {
              "components": [
                {
                  "internalType": "bool",
                  "name": "isImpersonationMode",
                  "type": "bool"
                }
              ],
              "internalType": "struct VaultConfig",
              "name": "vault",
              "type": "tuple"
            }
          ],
          "internalType": "struct SismoConnectConfig",
          "name": "",
          "type": "tuple"
        }
      ],
      "stateMutability": "view",
      "type": "function"
    },
    {
      "inputs": [],
      "name": "owner",
      "outputs": [
        {
          "internalType": "address",
          "name": "",
          "type": "address"
        }
      ],
      "stateMutability": "view",
      "type": "function"
    },
    {
      "inputs": [
        {
          "internalType": "address",
          "name": "_voting",
          "type": "address"
        }
      ],
      "name": "setVoting",
      "outputs": [],
      "stateMutability": "nonpayable",
      "type": "function"
    },
    {
      "inputs": [
        {
          "internalType": "address",
          "name": "_whitelist",
          "type": "address"
        }
      ],
      "name": "setWhitelist",
      "outputs": [],
      "stateMutability": "nonpayable",
      "type": "function"
    },
    {
      "inputs": [
        {
          "internalType": "bytes",
          "name": "response",
          "type": "bytes"
        }
      ],
      "name": "verifySismoConnectResponse",
      "outputs": [],
      "stateMutability": "nonpayable",
      "type": "function"
    },
    {
      "inputs": [],
      "name": "voting",
      "outputs": [
        {
          "internalType": "address",
          "name": "",
          "type": "address"
        }
      ],
      "stateMutability": "view",
      "type": "function"
    },
    {
      "inputs": [],
      "name": "whitelist",
      "outputs": [
        {
          "internalType": "address",
          "name": "",
          "type": "address"
        }
      ],
      "stateMutability": "view",
      "type": "function"
    }
  ],
  "bytecode": "0x61016060405273607ec1a7f093801b40dae21131ddadb8ce9911066000806101000a81548173ffffffffffffffffffffffffffffffffffffffff021916908373ffffffffffffffffffffffffffffffffffffffff1602179055503480156200006657600080fd5b506200008d6fedae8cc49b4f32e436691771aadd539360801b6000620005c460201b60201c565b80600001516fffffffffffffffffffffffffffffffff1916610120816fffffffffffffffffffffffffffffffff191681525050806020015160000151151561014081151581525050733cd5334eb64ebbd4003b72022cc25465f1bfcee673ffffffffffffffffffffffffffffffffffffffff1663693ec85e6040518060400160405280601981526020017f7369736d6f436f6e6e65637456657269666965722d76312e32000000000000008152506040518263ffffffff1660e01b815260040162000159919062000714565b602060405180830381865afa15801562000177573d6000803e3d6000fd5b505050506040513d601f19601f820116820180604052508101906200019d9190620007a2565b73ffffffffffffffffffffffffffffffffffffffff1660808173ffffffffffffffffffffffffffffffffffffffff1681525050733cd5334eb64ebbd4003b72022cc25465f1bfcee673ffffffffffffffffffffffffffffffffffffffff1663693ec85e6040518060400160405280601781526020017f61757468526571756573744275696c6465722d76312e310000000000000000008152506040518263ffffffff1660e01b815260040162000254919062000714565b602060405180830381865afa15801562000272573d6000803e3d6000fd5b505050506040513d601f19601f82011682018060405250810190620002989190620007a2565b73ffffffffffffffffffffffffffffffffffffffff1660a08173ffffffffffffffffffffffffffffffffffffffff1681525050733cd5334eb64ebbd4003b72022cc25465f1bfcee673ffffffffffffffffffffffffffffffffffffffff1663693ec85e6040518060400160405280601881526020017f636c61696d526571756573744275696c6465722d76312e3100000000000000008152506040518263ffffffff1660e01b81526004016200034f919062000714565b602060405180830381865afa1580156200036d573d6000803e3d6000fd5b505050506040513d601f19601f82011682018060405250810190620003939190620007a2565b73ffffffffffffffffffffffffffffffffffffffff1660c08173ffffffffffffffffffffffffffffffffffffffff1681525050733cd5334eb64ebbd4003b72022cc25465f1bfcee673ffffffffffffffffffffffffffffffffffffffff1663693ec85e6040518060400160405280601581526020017f7369676e61747572654275696c6465722d76312e3100000000000000000000008152506040518263ffffffff1660e01b81526004016200044a919062000714565b602060405180830381865afa15801562000468573d6000803e3d6000fd5b505050506040513d601f19601f820116820180604052508101906200048e9190620007a2565b73ffffffffffffffffffffffffffffffffffffffff1660e08173ffffffffffffffffffffffffffffffffffffffff1681525050733cd5334eb64ebbd4003b72022cc25465f1bfcee673ffffffffffffffffffffffffffffffffffffffff1663693ec85e6040518060400160405280601381526020017f726571756573744275696c6465722d76312e31000000000000000000000000008152506040518263ffffffff1660e01b815260040162000545919062000714565b602060405180830381865afa15801562000563573d6000803e3d6000fd5b505050506040513d601f19601f82011682018060405250810190620005899190620007a2565b73ffffffffffffffffffffffffffffffffffffffff166101008173ffffffffffffffffffffffffffffffffffffffff168152505050620007d4565b620005ce62000630565b6040518060400160405280846fffffffffffffffffffffffffffffffff1916815260200162000603846200060e60201b60201c565b815250905092915050565b6200061862000665565b60405180602001604052808315158152509050919050565b604051806040016040528060006fffffffffffffffffffffffffffffffff191681526020016200065f62000665565b81525090565b60405180602001604052806000151581525090565b600081519050919050565b600082825260208201905092915050565b60005b83811015620006b657808201518184015260208101905062000699565b60008484015250505050565b6000601f19601f8301169050919050565b6000620006e0826200067a565b620006ec818562000685565b9350620006fe81856020860162000696565b6200070981620006c2565b840191505092915050565b60006020820190508181036000830152620007308184620006d3565b905092915050565b600080fd5b600073ffffffffffffffffffffffffffffffffffffffff82169050919050565b60006200076a826200073d565b9050919050565b6200077c816200075d565b81146200078857600080fd5b50565b6000815190506200079c8162000771565b92915050565b600060208284031215620007bb57620007ba62000738565b5b6000620007cb848285016200078b565b91505092915050565b60805160a05160c05160e0516101005161012051610140516132c66200083d60003960008181610238015261037f01526000818161021701526103a3015260006109a3015260006107f00152600061074201526000610694015260006108c501526132c66000f3fe608060405234801561001057600080fd5b50600436106100a95760003560e01c8063a183dc2711610071578063a183dc2714610142578063c187bbc114610160578063c4d079511461017e578063c9512d991461019a578063d44434c9146101b8578063fce1ccca146101d4576100a9565b806346916301146100ae57806379502c55146100cc578063854cff2f146100ea5780638da5cb5b1461010657806393e59dc114610124575b600080fd5b6100b66101f2565b6040516100c39190610c9e565b60405180910390f35b6100d461020a565b6040516100e19190610d5a565b60405180910390f35b61010460048036038101906100ff9190610dc7565b610261565b005b61010e610333565b60405161011b9190610e03565b60405180910390f35b61012c610357565b6040516101399190610e03565b60405180910390f35b61014a61037d565b6040516101579190610e2d565b60405180910390f35b6101686103a1565b6040516101759190610e57565b60405180910390f35b61019860048036038101906101939190610dc7565b6103c5565b005b6101a2610497565b6040516101af9190610e8b565b60405180910390f35b6101d260048036038101906101cd9190610fec565b61049c565b005b6101dc610624565b6040516101e99190610e03565b60405180910390f35b733cd5334eb64ebbd4003b72022cc25465f1bfcee681565b610212610a4d565b61025c7f00000000000000000000000000000000000000000000000000000000000000007f000000000000000000000000000000000000000000000000000000000000000061064a565b905090565b60008054906101000a900473ffffffffffffffffffffffffffffffffffffffff1673ffffffffffffffffffffffffffffffffffffffff163373ffffffffffffffffffffffffffffffffffffffff16146102ef576040517f08c379a00000000000000000000000000000000000000000000000000000000081526004016102e6906110b8565b60405180910390fd5b80600260006101000a81548173ffffffffffffffffffffffffffffffffffffffff021916908373ffffffffffffffffffffffffffffffffffffffff16021790555050565b60008054906101000a900473ffffffffffffffffffffffffffffffffffffffff1681565b600260009054906101000a900473ffffffffffffffffffffffffffffffffffffffff1681565b7f000000000000000000000000000000000000000000000000000000000000000081565b7f000000000000000000000000000000000000000000000000000000000000000081565b60008054906101000a900473ffffffffffffffffffffffffffffffffffffffff1673ffffffffffffffffffffffffffffffffffffffff163373ffffffffffffffffffffffffffffffffffffffff1614610453576040517f08c379a000000000000000000000000000000000000000000000000000000000815260040161044a906110b8565b60405180910390fd5b80600160006101000a81548173ffffffffffffffffffffffffffffffffffffffff021916908373ffffffffffffffffffffffffffffffffffffffff16021790555050565b600281565b6000600167ffffffffffffffff8111156104b9576104b8610ec1565b5b6040519080825280602002602001820160405280156104f257816020015b6104df610a80565b8152602001906001900390816104d75790505b5090506104ff600061068a565b81600081518110610513576105126110d8565b5b60200260200101819052506000600167ffffffffffffffff81111561053b5761053a610ec1565b5b60405190808252806020026020018201604052801561057457816020015b610561610ace565b8152602001906001900390816105595790505b5090506105936f9b72562239c38dbc6fe8a0ff443019bf60801b610738565b816000815181106105a7576105a66110d8565b5b602002602001018190525060006105e58484846105e06040516020016105cc90611153565b6040516020818303038152906040526107e6565b610894565b90507f9289e35b3d969e3d006d5d4306119c6719c081660cf5b89a43654f2420a06668816040516106169190611614565b60405180910390a150505050565b600160009054906101000a900473ffffffffffffffffffffffffffffffffffffffff1681565b610652610a4d565b6040518060400160405280846fffffffffffffffffffffffffffffffff1916815260200161067f84610979565b815250905092915050565b610692610a80565b7f000000000000000000000000000000000000000000000000000000000000000073ffffffffffffffffffffffffffffffffffffffff16633a0ba6ff836040518263ffffffff1660e01b81526004016106eb9190611645565b600060405180830381865afa158015610708573d6000803e3d6000fd5b505050506040513d6000823e3d601f19601f820116820180604052508101906107319190611813565b9050919050565b610740610ace565b7f000000000000000000000000000000000000000000000000000000000000000073ffffffffffffffffffffffffffffffffffffffff1663e379821c836040518263ffffffff1660e01b81526004016107999190610e57565b600060405180830381865afa1580156107b6573d6000803e3d6000fd5b505050506040513d6000823e3d601f19601f820116820180604052508101906107df919061197d565b9050919050565b6107ee610b47565b7f000000000000000000000000000000000000000000000000000000000000000073ffffffffffffffffffffffffffffffffffffffff16636835f32c836040518263ffffffff1660e01b81526004016108479190611a10565b600060405180830381865afa158015610864573d6000803e3d6000fd5b505050506040513d6000823e3d601f19601f8201168201806040525081019061088d9190611ace565b9050919050565b61089c610b6a565b6000858060200190518101906108b2919061210f565b905060006108c1868686610999565b90507f000000000000000000000000000000000000000000000000000000000000000073ffffffffffffffffffffffffffffffffffffffff166312b037ff838361090961020a565b6040518463ffffffff1660e01b815260040161092793929190612916565b600060405180830381865afa158015610944573d6000803e3d6000fd5b505050506040513d6000823e3d601f19601f8201168201806040525081019061096d9190612dc1565b92505050949350505050565b610981610bc9565b60405180602001604052808315158152509050919050565b6109a1610bde565b7f000000000000000000000000000000000000000000000000000000000000000073ffffffffffffffffffffffffffffffffffffffff1663992403368585856040518463ffffffff1660e01b81526004016109fe93929190612f6d565b600060405180830381865afa158015610a1b573d6000803e3d6000fd5b505050506040513d6000823e3d601f19601f82011682018060405250810190610a449190613247565b90509392505050565b604051806040016040528060006fffffffffffffffffffffffffffffffff19168152602001610a7a610bc9565b81525090565b6040518060c0016040528060006005811115610a9f57610a9e6111b8565b5b815260200160008152602001600015158152602001600015158152602001600015158152602001606081525090565b6040518060e0016040528060006004811115610aed57610aec6111b8565b5b815260200160006fffffffffffffffffffffffffffffffff1916815260200160006fffffffffffffffffffffffffffffffff1916815260200160008152602001600015158152602001600015158152602001606081525090565b604051806060016040528060608152602001600015158152602001606081525090565b6040518060c0016040528060006fffffffffffffffffffffffffffffffff1916815260200160006fffffffffffffffffffffffffffffffff19168152602001600080191681526020016060815260200160608152602001606081525090565b60405180602001604052806000151581525090565b604051806080016040528060006fffffffffffffffffffffffffffffffff191681526020016060815260200160608152602001610c19610b47565b81525090565b600073ffffffffffffffffffffffffffffffffffffffff82169050919050565b6000819050919050565b6000610c64610c5f610c5a84610c1f565b610c3f565b610c1f565b9050919050565b6000610c7682610c49565b9050919050565b6000610c8882610c6b565b9050919050565b610c9881610c7d565b82525050565b6000602082019050610cb36000830184610c8f565b92915050565b60007fffffffffffffffffffffffffffffffff0000000000000000000000000000000082169050919050565b610cee81610cb9565b82525050565b60008115159050919050565b610d0981610cf4565b82525050565b602082016000820151610d256000850182610d00565b50505050565b604082016000820151610d416000850182610ce5565b506020820151610d546020850182610d0f565b50505050565b6000604082019050610d6f6000830184610d2b565b92915050565b6000604051905090565b600080fd5b600080fd5b6000610d9482610c1f565b9050919050565b610da481610d89565b8114610daf57600080fd5b50565b600081359050610dc181610d9b565b92915050565b600060208284031215610ddd57610ddc610d7f565b5b6000610deb84828501610db2565b91505092915050565b610dfd81610d89565b82525050565b6000602082019050610e186000830184610df4565b92915050565b610e2781610cf4565b82525050565b6000602082019050610e426000830184610e1e565b92915050565b610e5181610cb9565b82525050565b6000602082019050610e6c6000830184610e48565b92915050565b6000819050919050565b610e8581610e72565b82525050565b6000602082019050610ea06000830184610e7c565b92915050565b600080fd5b600080fd5b6000601f19601f8301169050919050565b7f4e487b7100000000000000000000000000000000000000000000000000000000600052604160045260246000fd5b610ef982610eb0565b810181811067ffffffffffffffff82111715610f1857610f17610ec1565b5b80604052505050565b6000610f2b610d75565b9050610f378282610ef0565b919050565b600067ffffffffffffffff821115610f5757610f56610ec1565b5b610f6082610eb0565b9050602081019050919050565b82818337600083830152505050565b6000610f8f610f8a84610f3c565b610f21565b905082815260208101848484011115610fab57610faa610eab565b5b610fb6848285610f6d565b509392505050565b600082601f830112610fd357610fd2610ea6565b5b8135610fe3848260208601610f7c565b91505092915050565b60006020828403121561100257611001610d7f565b5b600082013567ffffffffffffffff8111156110205761101f610d84565b5b61102c84828501610fbe565b91505092915050565b600082825260208201905092915050565b7f4f6e6c79207363566f74652063616e2063616c6c20746869732066756e63746960008201527f6f6e2e0000000000000000000000000000000000000000000000000000000000602082015250565b60006110a2602383611035565b91506110ad82611046565b604082019050919050565b600060208201905081810360008301526110d181611095565b9050919050565b7f4e487b7100000000000000000000000000000000000000000000000000000000600052603260045260246000fd5b7f3078303000000000000000000000000000000000000000000000000000000000600082015250565b600061113d600483611035565b915061114882611107565b602082019050919050565b6000602082019050818103600083015261116c81611130565b9050919050565b6000819050919050565b61118681611173565b82525050565b600081519050919050565b600082825260208201905092915050565b6000819050602082019050919050565b7f4e487b7100000000000000000000000000000000000000000000000000000000600052602160045260246000fd5b600681106111f8576111f76111b8565b5b50565b6000819050611209826111e7565b919050565b6000611219826111fb565b9050919050565b6112298161120e565b82525050565b61123881610e72565b82525050565b600081519050919050565b600082825260208201905092915050565b60005b8381101561127857808201518184015260208101905061125d565b60008484015250505050565b600061128f8261123e565b6112998185611249565b93506112a981856020860161125a565b6112b281610eb0565b840191505092915050565b600060a0830160008301516112d56000860182611220565b5060208301516112e86020860182610d00565b5060408301516112fb604086018261122f565b50606083015184820360608601526113138282611284565b9150506080830151848203608086015261132d8282611284565b9150508091505092915050565b600061134683836112bd565b905092915050565b6000602082019050919050565b60006113668261118c565b6113708185611197565b935083602082028501611382856111a8565b8060005b858110156113be578484038952815161139f858261133a565b94506113aa8361134e565b925060208a01995050600181019050611386565b50829750879550505050505092915050565b600081519050919050565b600082825260208201905092915050565b6000819050602082019050919050565b6005811061140d5761140c6111b8565b5b50565b600081905061141e826113fc565b919050565b600061142e82611410565b9050919050565b61143e81611423565b82525050565b600060e08301600083015161145c6000860182611435565b50602083015161146f6020860182610ce5565b5060408301516114826040860182610ce5565b506060830151611495606086018261122f565b50608083015184820360808601526114ad8282611284565b91505060a08301516114c260a086018261122f565b5060c083015184820360c08601526114da8282611284565b9150508091505092915050565b60006114f38383611444565b905092915050565b6000602082019050919050565b6000611513826113d0565b61151d81856113db565b93508360208202850161152f856113ec565b8060005b8581101561156b578484038952815161154c85826114e7565b9450611557836114fb565b925060208a01995050600181019050611533565b50829750879550505050505092915050565b600060c0830160008301516115956000860182610ce5565b5060208301516115a86020860182610ce5565b5060408301516115bb604086018261117d565b50606083015184820360608601526115d3828261135b565b915050608083015184820360808601526115ed8282611508565b91505060a083015184820360a08601526116078282611284565b9150508091505092915050565b6000602082019050818103600083015261162e818461157d565b905092915050565b61163f8161120e565b82525050565b600060208201905061165a6000830184611636565b92915050565b600080fd5b600080fd5b6006811061167757600080fd5b50565b6000815190506116898161166a565b92915050565b61169881610e72565b81146116a357600080fd5b50565b6000815190506116b58161168f565b92915050565b6116c481610cf4565b81146116cf57600080fd5b50565b6000815190506116e1816116bb565b92915050565b60006116fa6116f584610f3c565b610f21565b90508281526020810184848401111561171657611715610eab565b5b61172184828561125a565b509392505050565b600082601f83011261173e5761173d610ea6565b5b815161174e8482602086016116e7565b91505092915050565b600060c0828403121561176d5761176c611660565b5b61177760c0610f21565b905060006117878482850161167a565b600083015250602061179b848285016116a6565b60208301525060406117af848285016116d2565b60408301525060606117c3848285016116d2565b60608301525060806117d7848285016116d2565b60808301525060a082015167ffffffffffffffff8111156117fb576117fa611665565b5b61180784828501611729565b60a08301525092915050565b60006020828403121561182957611828610d7f565b5b600082015167ffffffffffffffff81111561184757611846610d84565b5b61185384828501611757565b91505092915050565b6005811061186957600080fd5b50565b60008151905061187b8161185c565b92915050565b61188a81610cb9565b811461189557600080fd5b50565b6000815190506118a781611881565b92915050565b600060e082840312156118c3576118c2611660565b5b6118cd60e0610f21565b905060006118dd8482850161186c565b60008301525060206118f184828501611898565b602083015250604061190584828501611898565b6040830152506060611919848285016116a6565b606083015250608061192d848285016116d2565b60808301525060a0611941848285016116d2565b60a08301525060c082015167ffffffffffffffff81111561196557611964611665565b5b61197184828501611729565b60c08301525092915050565b60006020828403121561199357611992610d7f565b5b600082015167ffffffffffffffff8111156119b1576119b0610d84565b5b6119bd848285016118ad565b91505092915050565b600082825260208201905092915050565b60006119e28261123e565b6119ec81856119c6565b93506119fc81856020860161125a565b611a0581610eb0565b840191505092915050565b60006020820190508181036000830152611a2a81846119d7565b905092915050565b600060608284031215611a4857611a47611660565b5b611a526060610f21565b9050600082015167ffffffffffffffff811115611a7257611a71611665565b5b611a7e84828501611729565b6000830152506020611a92848285016116d2565b602083015250604082015167ffffffffffffffff811115611ab657611ab5611665565b5b611ac284828501611729565b60408301525092915050565b600060208284031215611ae457611ae3610d7f565b5b600082015167ffffffffffffffff811115611b0257611b01610d84565b5b611b0e84828501611a32565b91505092915050565b611b2081611173565b8114611b2b57600080fd5b50565b600081519050611b3d81611b17565b92915050565b600067ffffffffffffffff821115611b5e57611b5d610ec1565b5b602082029050602081019050919050565b600080fd5b600067ffffffffffffffff821115611b8f57611b8e610ec1565b5b602082029050602081019050919050565b600060a08284031215611bb657611bb5611660565b5b611bc060a0610f21565b90506000611bd08482850161167a565b6000830152506020611be4848285016116d2565b6020830152506040611bf8848285016116d2565b6040830152506060611c0c848285016116a6565b606083015250608082015167ffffffffffffffff811115611c3057611c2f611665565b5b611c3c84828501611729565b60808301525092915050565b6000611c5b611c5684611b74565b610f21565b90508083825260208201905060208402830185811115611c7e57611c7d611b6f565b5b835b81811015611cc557805167ffffffffffffffff811115611ca357611ca2610ea6565b5b808601611cb08982611ba0565b85526020850194505050602081019050611c80565b5050509392505050565b600082601f830112611ce457611ce3610ea6565b5b8151611cf4848260208601611c48565b91505092915050565b600067ffffffffffffffff821115611d1857611d17610ec1565b5b602082029050602081019050919050565b600060c08284031215611d3f57611d3e611660565b5b611d4960c0610f21565b90506000611d598482850161186c565b6000830152506020611d6d84828501611898565b6020830152506040611d8184828501611898565b6040830152506060611d95848285016116d2565b6060830152506080611da9848285016116a6565b60808301525060a082015167ffffffffffffffff811115611dcd57611dcc611665565b5b611dd984828501611729565b60a08301525092915050565b6000611df8611df384611cfd565b610f21565b90508083825260208201905060208402830185811115611e1b57611e1a611b6f565b5b835b81811015611e6257805167ffffffffffffffff811115611e4057611e3f610ea6565b5b808601611e4d8982611d29565b85526020850194505050602081019050611e1d565b5050509392505050565b600082601f830112611e8157611e80610ea6565b5b8151611e91848260208601611de5565b91505092915050565b600060a08284031215611eb057611eaf611660565b5b611eba60a0610f21565b9050600082015167ffffffffffffffff811115611eda57611ed9611665565b5b611ee684828501611ccf565b600083015250602082015167ffffffffffffffff811115611f0a57611f09611665565b5b611f1684828501611e6c565b6020830152506040611f2a84828501611b2e565b604083015250606082015167ffffffffffffffff811115611f4e57611f4d611665565b5b611f5a84828501611729565b606083015250608082015167ffffffffffffffff811115611f7e57611f7d611665565b5b611f8a84828501611729565b60808301525092915050565b6000611fa9611fa484611b43565b610f21565b90508083825260208201905060208402830185811115611fcc57611fcb611b6f565b5b835b8181101561201357805167ffffffffffffffff811115611ff157611ff0610ea6565b5b808601611ffe8982611e9a565b85526020850194505050602081019050611fce565b5050509392505050565b600082601f83011261203257612031610ea6565b5b8151612042848260208601611f96565b91505092915050565b600060a0828403121561206157612060611660565b5b61206b60a0610f21565b9050600061207b84828501611898565b600083015250602061208f84828501611898565b60208301525060406120a384828501611b2e565b604083015250606082015167ffffffffffffffff8111156120c7576120c6611665565b5b6120d384828501611729565b606083015250608082015167ffffffffffffffff8111156120f7576120f6611665565b5b6121038482850161201d565b60808301525092915050565b60006020828403121561212557612124610d7f565b5b600082015167ffffffffffffffff81111561214357612142610d84565b5b61214f8482850161204b565b91505092915050565b600081519050919050565b600082825260208201905092915050565b6000819050602082019050919050565b600081519050919050565b600082825260208201905092915050565b6000819050602082019050919050565b600060a0830160008301516121c86000860182611220565b5060208301516121db6020860182610d00565b5060408301516121ee6040860182610d00565b506060830151612201606086018261122f565b50608083015184820360808601526122198282611284565b9150508091505092915050565b600061223283836121b0565b905092915050565b6000602082019050919050565b600061225282612184565b61225c818561218f565b93508360208202850161226e856121a0565b8060005b858110156122aa578484038952815161228b8582612226565b94506122968361223a565b925060208a01995050600181019050612272565b50829750879550505050505092915050565b600081519050919050565b600082825260208201905092915050565b6000819050602082019050919050565b600060c0830160008301516123006000860182611435565b5060208301516123136020860182610ce5565b5060408301516123266040860182610ce5565b5060608301516123396060860182610d00565b50608083015161234c608086018261122f565b5060a083015184820360a08601526123648282611284565b9150508091505092915050565b600061237d83836122e8565b905092915050565b6000602082019050919050565b600061239d826122bc565b6123a781856122c7565b9350836020820285016123b9856122d8565b8060005b858110156123f557848403895281516123d68582612371565b94506123e183612385565b925060208a019950506001810190506123bd565b50829750879550505050505092915050565b600060a08301600083015184820360008601526124248282612247565b9150506020830151848203602086015261243e8282612392565b9150506040830151612453604086018261117d565b506060830151848203606086015261246b8282611284565b915050608083015184820360808601526124858282611284565b9150508091505092915050565b600061249e8383612407565b905092915050565b6000602082019050919050565b60006124be82612158565b6124c88185612163565b9350836020820285016124da85612174565b8060005b8581101561251657848403895281516124f78582612492565b9450612502836124a6565b925060208a019950506001810190506124de565b50829750879550505050505092915050565b600060a0830160008301516125406000860182610ce5565b5060208301516125536020860182610ce5565b506040830151612566604086018261117d565b506060830151848203606086015261257e8282611284565b9150506080830151848203608086015261259882826124b3565b9150508091505092915050565b600081519050919050565b600082825260208201905092915050565b6000819050602082019050919050565b600060c0830160008301516125e96000860182611220565b5060208301516125fc602086018261122f565b50604083015161260f6040860182610d00565b5060608301516126226060860182610d00565b5060808301516126356080860182610d00565b5060a083015184820360a086015261264d8282611284565b9150508091505092915050565b600061266683836125d1565b905092915050565b6000602082019050919050565b6000612686826125a5565b61269081856125b0565b9350836020820285016126a2856125c1565b8060005b858110156126de57848403895281516126bf858261265a565b94506126ca8361266e565b925060208a019950506001810190506126a6565b50829750879550505050505092915050565b600081519050919050565b600082825260208201905092915050565b6000819050602082019050919050565b600060e0830160008301516127346000860182611435565b5060208301516127476020860182610ce5565b50604083015161275a6040860182610ce5565b50606083015161276d606086018261122f565b5060808301516127806080860182610d00565b5060a083015161279360a0860182610d00565b5060c083015184820360c08601526127ab8282611284565b9150508091505092915050565b60006127c4838361271c565b905092915050565b6000602082019050919050565b60006127e4826126f0565b6127ee81856126fb565b9350836020820285016128008561270c565b8060005b8581101561283c578484038952815161281d85826127b8565b9450612828836127cc565b925060208a01995050600181019050612804565b50829750879550505050505092915050565b6000606083016000830151848203600086015261286b8282611284565b91505060208301516128806020860182610d00565b50604083015184820360408601526128988282611284565b9150508091505092915050565b60006080830160008301516128bd6000860182610ce5565b50602083015184820360208601526128d5828261267b565b915050604083015184820360408601526128ef82826127d9565b91505060608301518482036060860152612909828261284e565b9150508091505092915050565b600060808201905081810360008301526129308186612528565b9050818103602083015261294481856128a5565b90506129536040830184610d2b565b949350505050565b600067ffffffffffffffff82111561297657612975610ec1565b5b602082029050602081019050919050565b600060a0828403121561299d5761299c611660565b5b6129a760a0610f21565b905060006129b78482850161167a565b60008301525060206129cb848285016116d2565b60208301525060406129df848285016116a6565b604083015250606082015167ffffffffffffffff811115612a0357612a02611665565b5b612a0f84828501611729565b606083015250608082015167ffffffffffffffff811115612a3357612a32611665565b5b612a3f84828501611729565b60808301525092915050565b6000612a5e612a598461295b565b610f21565b90508083825260208201905060208402830185811115612a8157612a80611b6f565b5b835b81811015612ac857805167ffffffffffffffff811115612aa657612aa5610ea6565b5b808601612ab38982612987565b85526020850194505050602081019050612a83565b5050509392505050565b600082601f830112612ae757612ae6610ea6565b5b8151612af7848260208601612a4b565b91505092915050565b600067ffffffffffffffff821115612b1b57612b1a610ec1565b5b602082029050602081019050919050565b600060e08284031215612b4257612b41611660565b5b612b4c60e0610f21565b90506000612b5c8482850161186c565b6000830152506020612b7084828501611898565b6020830152506040612b8484828501611898565b6040830152506060612b98848285016116a6565b606083015250608082015167ffffffffffffffff811115612bbc57612bbb611665565b5b612bc884828501611729565b60808301525060a0612bdc848285016116a6565b60a08301525060c082015167ffffffffffffffff811115612c0057612bff611665565b5b612c0c84828501611729565b60c08301525092915050565b6000612c2b612c2684612b00565b610f21565b90508083825260208201905060208402830185811115612c4e57612c4d611b6f565b5b835b81811015612c9557805167ffffffffffffffff811115612c7357612c72610ea6565b5b808601612c808982612b2c565b85526020850194505050602081019050612c50565b5050509392505050565b600082601f830112612cb457612cb3610ea6565b5b8151612cc4848260208601612c18565b91505092915050565b600060c08284031215612ce357612ce2611660565b5b612ced60c0610f21565b90506000612cfd84828501611898565b6000830152506020612d1184828501611898565b6020830152506040612d2584828501611b2e565b604083015250606082015167ffffffffffffffff811115612d4957612d48611665565b5b612d5584828501612ad2565b606083015250608082015167ffffffffffffffff811115612d7957612d78611665565b5b612d8584828501612c9f565b60808301525060a082015167ffffffffffffffff811115612da957612da8611665565b5b612db584828501611729565b60a08301525092915050565b600060208284031215612dd757612dd6610d7f565b5b600082015167ffffffffffffffff811115612df557612df4610d84565b5b612e0184828501612ccd565b91505092915050565b600082825260208201905092915050565b6000612e26826125a5565b612e308185612e0a565b935083602082028501612e42856125c1565b8060005b85811015612e7e5784840389528151612e5f858261265a565b9450612e6a8361266e565b925060208a01995050600181019050612e46565b50829750879550505050505092915050565b600082825260208201905092915050565b6000612eac826126f0565b612eb68185612e90565b935083602082028501612ec88561270c565b8060005b85811015612f045784840389528151612ee585826127b8565b9450612ef0836127cc565b925060208a01995050600181019050612ecc565b50829750879550505050505092915050565b60006060830160008301518482036000860152612f338282611284565b9150506020830151612f486020860182610d00565b5060408301518482036040860152612f608282611284565b9150508091505092915050565b60006060820190508181036000830152612f878186612e1b565b90508181036020830152612f9b8185612ea1565b90508181036040830152612faf8184612f16565b9050949350505050565b600067ffffffffffffffff821115612fd457612fd3610ec1565b5b602082029050602081019050919050565b6000612ff8612ff384612fb9565b610f21565b9050808382526020820190506020840283018581111561301b5761301a611b6f565b5b835b8181101561306257805167ffffffffffffffff8111156130405761303f610ea6565b5b80860161304d8982611757565b8552602085019450505060208101905061301d565b5050509392505050565b600082601f83011261308157613080610ea6565b5b8151613091848260208601612fe5565b91505092915050565b600067ffffffffffffffff8211156130b5576130b4610ec1565b5b602082029050602081019050919050565b60006130d96130d48461309a565b610f21565b905080838252602082019050602084028301858111156130fc576130fb611b6f565b5b835b8181101561314357805167ffffffffffffffff81111561312157613120610ea6565b5b80860161312e89826118ad565b855260208501945050506020810190506130fe565b5050509392505050565b600082601f83011261316257613161610ea6565b5b81516131728482602086016130c6565b91505092915050565b60006080828403121561319157613190611660565b5b61319b6080610f21565b905060006131ab84828501611898565b600083015250602082015167ffffffffffffffff8111156131cf576131ce611665565b5b6131db8482850161306c565b602083015250604082015167ffffffffffffffff8111156131ff576131fe611665565b5b61320b8482850161314d565b604083015250606082015167ffffffffffffffff81111561322f5761322e611665565b5b61323b84828501611a32565b60608301525092915050565b60006020828403121561325d5761325c610d7f565b5b600082015167ffffffffffffffff81111561327b5761327a610d84565b5b6132878482850161317b565b9150509291505056fea2646970667358221220feeedf8f6689db1e2e7c72ef2016f805fd5b7c61d97182651761041547bb6cd264736f6c63430008130033",
  "linkReferences": {},
  "deployedLinkReferences": {}
}